:020000040800F2
:10000000484400205D020008F30F0008F50E0008C8
:10001000F10F00088D030008BD1200080000000069
:100020000000000000000000000000009D0100082A
:100030008F03000800000000F9010008F50F000818
:1000400077020008770200087702000877020008AC
:10005000770200087702000877020008770200089C
:10006000770200087702000877020008770200088C
:10007000770200087702000877020008770200087C
:10008000770200087702000877020008770200086C
:10009000770200087702000877020008770200085C
:1000A000770200087702000877020008770200084C
:1000B000770200087702000877020008770200083C
:1000C000770200087702000877020008770200082C
:1000D000770200087702000877020008770200081C
:1000E000770200087702000877020008770200080C
:1000F00077020008770200087702000877020008FC
:100100007702000877020008C11000087702000893
:1001100077020008770200087702000877020008DB
:1001200077020008770200087702000877020008CB
:1001300077020008770200087702000877020008BB
:1001400077020008770200087702000877020008AB
:10015000770200087702000877020008770200089B
:10016000770200087702000877020008770200088B
:1001700077020008770200087702000800000000FC
:100180007702000877020008DFF80CD000F0ECF8E6
:100190000048004743130008484400202C4B1968CE
:1001A0000868B0E8F04F80F30988BFF36F8F4FF015
:1001B000000080F3118870470000000008480068C4
:1001C000006880F308884FF0000080F3148862B65E
:1001D00061B6BFF34F8FBFF36F8F00DF00BF00BF6B
:1001E00008ED00E0DFF80C00016841F470010160E7
:1001F000704700BF88ED00E0EFF30980BFF36F8F19
:10020000134B1A681EF0100F08BF20ED108A20E96A
:10021000F04F106009B44FF0500080F31188BFF325
:100220004F8FBFF36F8F01F051FC4FF0000080F350
:10023000118809BC19680868B0E8F04F1EF0100F6B
:1002400008BFB0EC108A80F30988BFF36F8F704746
:100250001C000020EFF3058070470000064880472F
:1002600006480047FEE7FEE7FEE7FEE7FEE7FEE79B
:10027000FEE7FEE7FEE7FEE7A5100008890100089B
:100280002DE9F05F0546002092469B4688460646CB
:10029000814640241BE0284641464746224600F05E
:1002A00053F853465A46C01A914110D31146184686
:1002B000224600F03AF82D1A67EB01084F46224615
:1002C0000120002100F031F817EB00094E41201EFB
:1002D000A4F10104DFDC484631462A464346BDE826
:1002E000F09F40EA01039B0703D009E008C9121FF1
:1002F00008C0042AFAD203E011F8013B00F8013BE0
:10030000521EF9D27047D2B201E000F8012B491E0B
:10031000FBD270470022F6E710B513460A460446A2
:100320001946FFF7F0FF204610BD202A04DB203AD3
:1003300000FA02F1002070479140C2F1200320FA38
:1003400003F3194390407047202A04DB203A21FA36
:1003500002F00021704721FA02F3D040C2F12002DE
:100360009140084319467047064C074D06E0E06887
:1003700040F0010394E8070098471034AC42F6D3EC
:10038000FFF706FFDC1E0008FC1E0008FEE77047B2
:10039000704700002DE9F84F00224FF001080325B7
:1003A0004FF00F0E0B6808FA02F42340A3426ED1FF
:1003B0004E68012E05D0022E03D0112E01D0122E30
:1003C00012D186684FEA420C05FA0CF7BE43CF689B
:1003D00007FA0CF7374387604668A6430C79C4F3E5
:1003E0000014944034434460C668570005FA07FC83
:1003F0008C6826EA0C06BC403443C4604C68022C6E
:1004000001D0122C13D1D40800EB8404A346D4F8F5
:10041000209054074FEAD46A0EFA0AF629EA060930
:100420000E6906FA0AF646EA0906CBF82060066865
:100430000C7926EA0C0604F00304BC403443046043
:100440004C68E40065D5364C266846F48046266044
:10045000246822F0030604F480440094314C3444B0
:10046000A446D4F808489607370F0EFA07F6B443A7
:100470002D4EB04201D1002624E02C4EB04201D1D5
:1004800001261FE02A4EB04202D102261AE040E0C7
:10049000284EB04201D1032614E0274EB04201D1CC
:1004A00004260FE0254EB04201D105260AE0244E75
:1004B000B04201D1062605E0224EB04201D1072606
:1004C00000E00826BE402643CCF808681E4E34687B
:1004D0004F689C43FF0300D51C4334601A4C241D15
:1004E00026684F689E43BF0300D51E432660164E04
:1004F000083634684F689C43FF0200D51C433460C3
:10050000114E0C3634684F689C43BF0200D51C4323
:100510003460521C102AFFF445AFBDE8F88F00008C
:100520004438024000300140000002400004024014
:1005300000080240000C024000100240001402407B
:1005400000180240001C0240003C01400AB18161D9
:1005500070470904FBE7000001488068704700000D
:100560000C000020024881680278114481607047C5
:100570000C0000200B4810B5016841F400710160C7
:10058000016841F480610160016841F4807101609B
:10059000032000F08DF8002000F006F800F03EF88F
:1005A000002010BD003C024010B5014688B000227A
:1005B000322000F05DF8322000F04CF8134800249F
:1005C000016841F008010160006805A900F0080019
:1005D0000690684600F018F900F036F90C49400022
:1005E000B0FBF1F10C480B4A491E026040F2E732C1
:1005F000C0E90324C0E9011400F026FB10B101207A
:1006000008B010BD044800F03BFBF9E74038024059
:1006100040420F00000C0040140300200C4882B040
:10062000016841F480410160006800F4804000905E
:100630000748001F016841F08051016000680022F6
:1006400000F0805000900F21901E02B000F010B812
:1006500044380240002809DB00F01F0201219140CC
:100660004009800000F1E020C0F800117047000050
:10067000F0B40E4B1B680C46C3F30223C3F107050D
:10068000042D00D90425191D072901D2002300E0FB
:10069000DB1E012606FA05F1491E214099409E40C5
:1006A000761E16403143F0BC00F012BE0CED00E0A7
:1006B000064900F0070208684FF6FF03184040EAB9
:1006C0000220034A10430860704700000CED00E070
:1006D0000000FA052DE9F0470E46050065D0DFF869
:1006E0001481D8F80000F7B200F00F00B04207D232
:1006F00088F80070D8F8000000F00F00B04254D124
:1007000028683D4C810712D5400703D5206840F486
:10071000E05020602878000703D5206840F460404E
:1007200020602068A96820F0F00008432060287845
:10073000C0072DD0304968680839012812D0022836
:1007400013D0032811D00968890700292DDA216800
:1007500021F0030101432160FFF7FEFE814641F2D3
:10076000883A0EE009688903EFE709688901ECE738
:10077000FFF7F2FEA0EB0901514502D90320BDE8C5
:10078000F0872068696800F00C00B0EB810FEFD1B2
:10079000D8F80010404601F00F01B14207D90770A8
:1007A000006800F00F00B04201D00120E7E7287890
:1007B000400705D52068E96820F4E0500843206030
:1007C0002878000706D52068296920F4604040EAAF
:1007D000C100206000F058F82168084AC1F30311F5
:1007E000515CC8400649086006480068FFF7DCFE17
:1007F0000020C4E7003C024008380240AC1E00085C
:1008000018000020100000200F2202600C4A13681C
:1008100003F003034360136803F0F003836013687D
:1008200003F4E053C36012684FF4E05303EAD202CA
:1008300002610448006800F00F0008607047000083
:1008400008380240003C0240044805490068096835
:10085000044AC1F38221515CC8407047180000204F
:1008600008380240BC1E00080448054900680968B1
:10087000044AC1F34231515CC8407047180000205F
:1008800008380240BC1E0008154810B5006810F07A
:100890000C02144813D04110042A0FD0082A0ED19C
:1008A0000F4C241F2268236802F03F025B0207D529
:1008B0002068C0F38810A0FB010106E0084610BDC7
:1008C0002168C1F38811A1FB00010023FFF7D8FCC8
:1008D0002168C1F30141491C4900B0FBF1F010BD92
:1008E000083802400024F4002DE9F84F040076D0C7
:1008F0002078DFF838A3CE4DC00749D0DAF80010D1
:100900005046C1F38101012908D00068C0F381007D
:1009100002280AD1281D0068400206D528688003F5
:1009200036D560680028E2D032E06068B0F5803FDC
:1009300010D0B0F5A02F286810D020F480302860A7
:10094000286820F4802028606068A0B1FFF704FECA
:1009500006460CE0286840F48030F4E740F480203C
:100960002860F7E7FFF7F8FD801B642873D8286834
:100970008003F7D50CE0FFF7EFFD064605E000BF6A
:10098000FFF7EAFD801B6428F0D828688003F7D4BD
:100990002078DFF8A08280074FF000093ED5DAF812
:1009A0000010504611F00C0F09D00068C0F3810010
:1009B00002280BD19D48001F0068400206D4286819
:1009C000800715D5E068012809D111E0E068B8B1C9
:1009D0000120C8F80000FFF7BFFD064605E020E152
:1009E000FFF7BAFD801B0228C0D828688007F7D51A
:1009F0002868216920F0F80040EAC10028600DE075
:100A0000C8F80090FFF7A8FD064604E0FFF7A4FD34
:100A1000801B02281FD828688007F7D42078000799
:100A200022D5824E844861696C3671B10121016022
:100A3000FFF792FD074604E0FFF78EFDC01B02287A
:100A400009D830688007F7D50EE0C0F80090FFF7AE
:100A500083FD074605E082E0FFF77EFDC01B02280C
:100A60007DD830688007F7D42078400768D5DFF854
:100A7000BCB100270BF1380BDBF80000C0000BD431
:100A8000DBF8001041F08051CBF80010DBF80000DB
:100A9000012700F080500090684E3068C00510D4E7
:100AA000306840F480703060FFF756FD009005E03C
:100AB000FFF752FD0099401A022850D83068C0054F
:100AC000F6D55A4EA068683601280FD00528306840
:100AD00010D020F001003060306820F00400306059
:100AE000A068B8B1FFF738FD00900FE0306840F023
:100AF0000100F4E740F004003060F7E7FFF72CFD59
:100B00000099411A41F28830814266D830688007E6
:100B1000F4D50EE0FFF720FD009007E0FFF71CFD85
:100B20000099411A41F28830814256D830688007D6
:100B3000F4D42FB1DBF8001021F08051CBF8001075
:100B4000A069D0B3DAF800205146C2F38102022A2C
:100B50004AD00228484607D0C8F8600000E03CE0D0
:100B6000FFF7FAFC04463BE04746C8F86000FFF791
:100B7000F3FC064605E000BFFFF7EEFC801B0228F1
:100B80002BD828688001F7D4D4E907010843A16A6B
:100B90002B4A490802EB0141626A41EA821108438B
:100BA00094F82C1040EA01612048001F01600120E8
:100BB0003866FFF7D1FC044605E034E0FFF7CCFCD3
:100BC000001B022809D828688001F7D52BE000BF58
:100BD000FFF7C2FC001B022802D90320BDE8F88FF2
:100BE00028688001F4D41EE00128F7D00868E26983
:100BF00000F48001914214D1226A00F03F01914239
:100C00000FD147F6C071626A0140914209D1A26AD0
:100C100000F44031914204D1E16A00F070608842F2
:100C200001D00120DAE70020D8E7000008380240B0
:100C30000038024000004742800E474200700040EA
:100C40000000FFFF7047704710B5040003D094F810
:100C50003D0010B107E0012010BD002084F83C00E9
:100C6000204600F00CF8022084F83D00211D206889
:100C700000F02CFA012084F83D00002010BD7047E0
:100C80000168CA6842F00102CA600068816801F028
:100C90000701062903D0016841F00101016000202D
:100CA0007047704770B50446006801694FF0000551
:100CB000C943890715D4C168C943890711D4E91EFE
:100CC000016101202077206880698007204602D0DA
:100CD000FFF7E7FF04E000F098F8204600F096F8F0
:100CE000257720680169C943490717D4C168C943FA
:100CF000490713D46FF004010161022020772068B6
:100D0000806910F4407F204602D0FFF7CAFF04E05C
:100D100000F07BF8204600F079F82577206801691B
:100D2000C943090716D4C168C943090712D46FF033
:100D300008010161042020772068C06980072046EF
:100D400002D0FFF7AEFF04E000F05FF8204600F0AD
:100D50005DF8257720680169C943C90617D4C168C1
:100D6000C943C90613D46FF0100101610820207730
:100D70002068C06910F4407F204602D0FFF791FF41
:100D800004E000F042F8204600F040F825772068A3
:100D90000169C943C90708D1C168C943C90704D15A
:100DA000891E0161204600F033F820680169C943BB
:100DB000090609D4C168C943090605D46FF080014A
:100DC00001612046FFF73EFF20680169C9434906DB
:100DD00009D4C168C943490605D46FF040010161D7
:100DE000204600F01FF820680169C94389060BD42A
:100DF000C168C943890607D46FF02001016120460C
:100E0000BDE87040FFF71FBF70BD7047704700001E
:100E100000680349884201D1FFF7A4BB7047000076
:100E2000000C0040704770B5040004D094F83900FD
:100E3000002510B106E0012070BD84F8385020462E
:100E400000F022F8242084F839002068C16821F4D9
:100E50000051C160204600F09DF92068016921F42D
:100E6000904101612068416921F02A0141612068B7
:100E7000C16841F40051C160E563202084F8390065
:100E800084F83A00002070BD10B586B004461421E5
:100E90006846FFF73FFA14492068884221D1134879
:100EA000016841F010010160006800F01000059039
:100EB0000E481438016841F001010160006869467C
:100EC00000F0010005904FF4C060009002200190F6
:100ED0000120029003200390072004900448FFF7AC
:100EE00059FA06B010BD000000100140443802401D
:100EF00000000240FEE7000010B596B01C22114928
:100F00006846FFF7EEF90021684600F039FA0E4C0A
:100F10000C491C2220601C3107A8FFF7E2F90021D0
:100F200007A800F02DFA074960601C2238310EA88E
:100F3000FFF7D7F900210EA800F022FAA06016B042
:100F400010BD0000581E00080000002070B586B0DB
:100F500014216846FFF7DEF915480025016841F0C5
:100F600080010160016801F080010591016841F094
:100F70000101016000680F4E00F0010005902A4653
:100F800004213046FFF7E2FA0220CDE900050124F2
:100F9000694602943046FFF7FDF90420CDE90004CC
:100FA00069463046CDE90245FFF7F4F906B070BD59
:100FB00030380240000002400C4810B50A49016078
:100FC0004FF4E1314160002181600C22C160C0E931
:100FD00004128161C161FFF726FF002803D0BDE83C
:100FE0001040FFF7D5B910BD00100140D402002019
:100FF000FEE7704710B5502080F31188BFF34F8F84
:10100000BFF36F8F00F062FE18B104494FF08050BB
:101010000860002080F3118810BD000004ED00E09E
:1010200030B593B030216846FFF774F914210CA84D
:10103000FFF770F919480025016841F080510160FF
:10104000006800F0805011901548016841F480411B
:1010500001600068022400F480401190012000909B
:10106000000401908001CDE9064004200890A820EA
:10107000CDE9090407200B906846FFF735FC0CA961
:101080000F2081E831004FF4A0500F90E002109043
:1010900005210CA8FFF71EFB13B030BD40380240FD
:1010A000007000400548016841F470010160034987
:1010B0004FF00060803908607047000088ED00E064
:1010C0000148FFF7EFBD000014030020F0B50268EF
:1010D000254C264D264E274F274B4FF0804CA042E3
:1010E00009D0604507D0A84205D0B04203D0B8422D
:1010F00001D0984204D122F0700E4A6842EA0E02F2
:10110000A0421BD0604519D0A84217D0B04215D0DC
:10111000B84213D0984211D0184DA8420ED0184DA5
:10112000A8420BD0174DA84208D0174DA84205D0B1
:10113000164DA84202D0164DA84203D122F44075A4
:10114000CA682A434D6922F080022A4302608A68F5
:10115000C2620A688262A04201D0984201D1096944
:10116000016301214161F0BD000001400004004025
:1011700000080040000C0040000401400040014015
:10118000004401400048014000180040001C00409D
:10119000002000402DE9F041044600680169E26842
:1011A00021F44051114301612169A068E2690843BB
:1011B0006169114308432168CA6849F20C639A4384
:1011C0000243CA6020684169A26921F44071114359
:1011D0004161E069192764253226B0F5004F354A90
:1011E000354920684FF0000806D0884201D090426F
:1011F00036D1FFF739FB35E0884201D0904202D169
:10120000FFF732FB01E0FFF71FFB61684A18A0FB04
:10121000070148EB0803FFF733F80146B0FBF5F090
:101220000201B1FBF5F06FF01803584301EB8000A9
:1012300006EBC000B0FBF5F000F0F80002EB400256
:10124000B1FBF5F0584301EB800006EBC000B0FBAA
:10125000F5F000F00700216810448860BDE8F081D7
:10126000FFF7F2FA61688B0F8A00A0FB0701FFF716
:1012700007F80146B0FBF5F06FF01802504301EBA0
:10128000800006EB0010B0FBF5F000F0F002B1FBBF
:10129000F5F002EB0012B1FBF5F06FF018035843C4
:1012A00001EB800006EB0010B0FBF5F000F00F0042
:1012B000D1E700000014014000100140FEE70000EB
:1012C000014A024900F023B8311300087C000020D5
:1012D0000907090E002804DB00F1E02080F8001463
:1012E000704700F00F0000F1E02080F8141D7047F7
:1012F00002E008C8121F08C1002AFAD170477047DF
:10130000002001E001C1121F002AFBD170472DE926
:10131000F04116460F460446002503E03946B04723
:10132000641C6D1C20780028F8D12846BDE8F081A7
:1013300038B504468DF8000069460320ABBE204650
:1013400038BDFFF717F9FFF76BFEFFF7FFFDFFF75B
:1013500033FEFFF7D1FD00F00EF8FEE70146002056
:10136000842900D0C81C704710B500B9012000F0D6
:1013700049FB002010BD10B500F06AFB002010BD35
:101380007FB50D4604464169B0F9080081B1A169F5
:1013900071B1FFF7E3FFD4E905128DE80700D4E946
:1013A00000102B46226900F066FC039004B070BD6B
:1013B000FFF7D4FF03A9CDE90001208A2B4682B2B2
:1013C000D4E9001000F02AFC012801D00020EDE74C
:1013D0000398EBE72DE9F041184C0F460546666986
:1013E0002068001D00F04AFA38B9206890F82C10E7
:1013F00001208840A1698143A161681C07D137B1F0
:101400002168BDE8F0410E48091D00F07BBA206854
:101410003544B5424560216805D2A068BDE8F04179
:10142000091D00F057BA6068091D00F053FA206BDF
:10143000854200D22563BDE8F08100001C00002039
:10144000300400202DE9F041054600F067FA2E4CEB
:101450002069401C206120682C4F10B1E06940B326
:101460002DE025602069012829D1002606EB8600A1
:1014700007EB800000F020FA761C072EF6D32348F5
:101480008C3000F019FA2148A03000F015FA1F48FE
:10149000B43000F011FA1D48C83000F00DFA1B48B6
:1014A000DC3000F009FA19488C3060601430A0601C
:1014B00005E02068E96AC06A884200D82560E06AD1
:1014C000401CE062E96A0120A26988401043A061E3
:1014D00001EB810007EB8000291D00F013FA00F0FA
:1014E0003DFAE06900280CD02068E96AC06A8842A9
:1014F00007D207494FF080500860BFF34F8FBFF30A
:101500006F8FBDE8F08100001C0000205403002014
:1015100004ED00E010B5044690F8510058B10128E0
:101520000CD002280FD0502080F31188BFF34F8FCA
:10153000BFF36F8FFEE7206B00F024FA2046BDE872
:10154000104000F01FBA10BD10484FF47051420710
:1015500006D0C01D0D4920F00700411AC1F5705199
:101560000B4A00230144C2E900030839103A21F074
:10157000070111604B600B600B1AC0E90013936008
:101580004FF000405360D0607047000044040020DA
:1015900068000020144E154CA6F1C8074FF0805883
:1015A000DFF84C9012E000BF00F0B8F9F068C568B1
:1015B000281D00F063F92069401E2061E068401E8C
:1015C000E06000F0CBF92846FFF7A4FFE0680028B0
:1015D000EAD138680128F9D9C9F80080BFF34F8FE4
:1015E000BFF36F8FF2E700001C0400201C000020F6
:1015F00004ED00E02DE9F0479A46DDE909848146D3
:101600006FF00303206B03EB82021044089D20F06F
:101610000706700707D0502080F31188BFF34F8F63
:10162000BFF36F8FFEE723180A5C83F834200A5C4F
:1016300012B1401C1028F6D3002784F84370072D00
:1016400000D30625E562C4E91157201D00F03FF9DB
:1016500004F1180000F03BF92461C5F10700646251
:10166000A061E76484F8507052464946304600F065
:10167000BFF82060B8F1000F01D0C8F80040BDE805
:10168000F087000030B5114900E011460A68824237
:10169000FBD34B685C18844203D14068184448600F
:1016A000084643681C18944209D1084C103C246831
:1016B000A24209D052681A4442600A681268026065
:1016C000814200D0086030BD0460F9E76800002066
:1016D00006484168096829B14168C968C96849680C
:1016E000016370474FF0FF31FAE700001C00002053
:1016F00008484068401C4FF0500080F3118804D027
:10170000BFF34F8FBFF36F8FFEE7BFF34F8FBFF372
:101710006F8FFEE7700000202DE9F041054600279D
:1017200000F0CCF9314E306808B9FFF70DFFF068D2
:1017300005424BD1C5B3083568070ED005F0070048
:10174000C0F108000544680707D0502080F31188D5
:10175000BFF34F8FBFF36F8FFEE72DB370688542E5
:1017600034D82248103001460C6801E020460C466F
:101770006168A94202D221680029F7D131688C4200
:1017800024D007682168016060680837411B102970
:101790000FD96019420708D0502080F31188BFF399
:1017A0004F8FBFF36F8FFEE710E041606560FFF77A
:1017B00069FF61687068401A7060B268904200D238
:1017C000B060F06801430020C4E9000100F0E2FAD3
:1017D000780707D0502080F31188BFF34F8FBFF3F5
:1017E0006F8FFEE73846BDE8F0810000580000200A
:1017F00010B5031F4FF080741C601B1F21F0010106
:101800001960191F044B0B6014390A60091F6FF02F
:10181000020244380A6010BDF11600084FF47A74D1
:1018200003A0FFF74DFD2046FFF79EFDF8E70000FF
:101830006869207461736B310A0000004FF47A7498
:1018400003A0FFF73DFD2046FFF78EFDF8E70000FF
:101850006869207461736B320A0000004FF47A7477
:1018600003A0FFF72DFD2046FFF77EFDF8E70000FF
:101870006869207461736B330A000000D0E901329B
:1018800001699A60D0E901235A604A68824201D115
:1018900082684A60002202610868401E0860086889
:1018A00070470000034B036003F154000860802080
:1018B000106070478000002000F108014FF0FF32F7
:1018C000C0E90112C160016100210160704700217F
:1018D0000161704730B50B685A1C02D000F1080254
:1018E00002E0026904E02246546825689D42FAD964
:1018F00053684B6099608A60516008610168491CB7
:10190000016030BD42684A6093688B60936859609B
:10191000916008610168491C01607047502080F3A4
:101920001188BFF34F8FBFF36F8F0A494868401C7F
:10193000486001280CD10848006810F0FF0F07D05C
:10194000502080F31188BFF34F8FBFF36F8FFEE7F6
:10195000704700007000002004ED00E0084948686E
:1019600028B1401E486001D180F311887047502093
:1019700080F31188BFF34F8FBFF36F8FFEE7000036
:101980007000002070B5002827D0144DA0F1080485
:101990006168E868014207D1502080F31188BFF3E5
:1019A0004F8FBFF36F8FFEE722683AB1502080F36C
:1019B0001188BFF34F8FBFF36F8FFEE781436160E4
:1019C00000F07CF860686968084468602046FFF7AA
:1019D00059FEBDE8704000F0DDB970BD5800002030
:1019E0004FF0E02000210161816105494FF47A72D6
:1019F0000968B1FBF2F1491E41610721016170479D
:101A00001800002010B5020014D00F48806B38B1C8
:101A1000502080F31188BFF34F8FBFF36F8FFEE725
:101A200000F04CF800211046FFF7D4FC00F0B2F9AA
:101A3000002807D105494FF080500860BFF34F8F51
:101A4000BFF36F8F10BD00001C00002004ED00E00C
:101A500010B586B00024039405AA04A903A8049431
:101A6000FFF720FFDDE903010094CDE90110002319
:101A70000EA11048059A00F0FEF80F4900284863AF
:101A800011D0502080F31188BFF34F8FBFF36F8FB9
:101A90004FF0FF3008630120C8614C6106B0BDE81B
:101AA000104000F041B806B010BD000049444C455C
:101AB00000000000951500081C0000200248816B02
:101AC000491C8163704700001C0000201448816B92
:101AD00011B1012141627047002141628169B1FA6F
:101AE00081F1C1F11F0101EB81020E4951F8223051
:101AF0006BB101EB820101F108034A6852684A6048
:101B00009A4201D152684A60D16801607047502002
:101B100080F31188BFF34F8FBFF36F8FFEE7000094
:101B20001C000020540300201CB537480168374AC8
:101B3000914207D1502080F31188BFF34F8FBFF33C
:101B40006F8FFEE700683149491E884207D1502057
:101B500080F31188BFF34F8FBFF36F8FFEE72C49DF
:101B600008780190FF20087008788DF800009DF833
:101B700000009DF8002000F0F000904207D05020B7
:101B800080F31188BFF34F8FBFF36F8FFEE79DF88F
:101B90000000204B00F0500018700720986005E00E
:101BA0009DF8002052008DF80020401E9DF8002076
:101BB0001206F5D49860032807D0502080F31188CE
:101BC000BFF34F8FBFF36F8FFEE74FF44070986005
:101BD000019808700C482030016841F470010160E0
:101BE000016841F070410160FFF7FAFE0020586083
:101BF000FEF7F8FA0848016841F040410160FEF73D
:101C0000DDFA00201CBD000000ED00E071C20F41B4
:101C100000E400E07000002034EF00E02DE9FF5FF9
:101C20008346DDE90E87994616468A469000FFF7FF
:101C300073FD05001CD05420FFF76EFD040014D086
:101C40000020256384F85100CDE90240CDE90087EA
:101C50004B46324651465846FFF7CCFC2046FFF72C
:101C6000F1FB012004B0BDE8F09F2846FFF78AFE93
:101C70004FF0FF30F6E7F0B585B0DDE90B640A9D63
:101C8000A6B1DCB1542700972663022684F8516080
:101C9000002604AFCDE90246CDE90057FFF7AAFCC4
:101CA0002046FFF7CFFB049805B0F0BD502080F32D
:101CB0001188BFF34F8FBFF36F8FFEE7502080F383
:101CC0001188BFF34F8FBFF36F8FFEE72DE9F0410F
:101CD0002E4C0027A06B40B1206A401C2062606A35
:101CE00000B101273846BDE8F0816669761C66615F
:101CF00013D16068006838B1502080F31188BFF3B9
:101D00004F8FBFF36F8FFEE76068A1686160A060CE
:101D1000A06A401CA062FFF7DBFC206BDFF870803C
:101D2000864209D36068006880B16068C068C56891
:101D3000686886420DD220632068C06A00EB80018B
:101D400058F821000128CAD90127C8E74FF0FF3011
:101D5000F1E7281DFFF792FDA86A18B105F11800F8
:101D6000FFF78CFDE86A0121A26981401143A1615E
:101D700000EB800108EB8100291DFFF7C3FDE86A35
:101D80002168C96A8842CDD30127CBE71C00002017
:101D9000540300202DE9F0472C4D00242746A86B62
:101DA00038B1FFF7BBFDA86B401EA863A86B40B11C
:101DB00046E0502080F31188BFF34F8FBFF36F8F41
:101DC000FEE72969224E0120D1B3A6F1B40980466D
:101DD0003068E8B1F068C46804F11800FFF74EFD00
:101DE000201DFFF74BFDE06AAA6908FA00F11143D4
:101DF000A96100EB800109EB8100211DFFF782FD45
:101E0000E06A2968C96A8842E2D3C5F82480DFE71E
:101E10000CB1FFF75DFC2C6A44B14646FFF756FF54
:101E200000B16E62641EF9D100202862686A38B180
:101E30000849012738070860BFF34F8FBFF36F8F42
:101E4000FFF78CFD3846BDE8F08700001C0000203D
:101E50000804002004ED00E0C41E00081D1800085E
:101E600000000000000000008000000000000000F2
:101E700000000000CC1E00083D1800080000000013
:101E800000000000800000000000000000000000D2
:101E9000D41E00085D1800080000000000000000CB
:101EA00080000000000000000000000000000000B2
:101EB00000000000010203040607080900000000FA
:101EC000010203047461736B310000007461736B71
:101ED000320000007461736B33000000FC1E0008C8
:101EE0000000002080000000F01200087C1F0008A5
:101EF00080000020C843000000130008000000001C
:101F000000000000000000000100000010000000C0
:101F1000000000000024F4000000000000000000A9
:101F200000000000000000000000000000000000B1
:101F300000000000000000000000000000000000A1
:101F40000000000000000000000000000000000091
:101F50000000000000000000000000000000000081
:101F60000000000000000000000000000000000071
:0C1F7000AAAAAAAA0000000000000000BD
:040000050800018965
:00000001FF
