:020000040800F2
:10000000600400209D010008231400087F130008ED
:10001000211400083D0700086B16000800000000CE
:10002000000000000000000000000000271400088D
:100030003F070008000000002514000829140008EC
:10004000B7010008B7010008B7010008B7010008B0
:10005000B7010008B7010008B7010008B7010008A0
:10006000B7010008B7010008B7010008B701000890
:10007000B7010008B7010008B7010008B701000880
:10008000B7010008B7010008B7010008B701000870
:10009000B7010008B7010008B7010008B701000860
:1000A000B7010008B7010008B7010008B701000850
:1000B000E1140008B7010008B7010008B701000803
:1000C000B7010008B7010008B7010008B701000830
:1000D000B7010008B7010008B7010008B701000820
:1000E000B7010008B7010008B7010008B701000810
:1000F000B7010008B7010008B7010008B701000800
:10010000B7010008B7010008B7010008B7010008EF
:10011000B7010008B7010008B7010008B7010008DF
:10012000B7010008B7010008B7010008B7010008CF
:10013000B7010008B7010008B7010008B7010008BF
:10014000B7010008B7010008B7010008B7010008AF
:10015000B7010008B7010008B7010008B70100089F
:10016000B7010008B7010008B7010008B70100088F
:10017000B7010008B7010008B7010008000000003F
:10018000B7010008B7010008DFF80CD000F0B2FAA0
:1001900000480047911F000860040020064880477F
:1001A00006480047FEE7FEE7FEE7FEE7FEE7FEE75C
:1001B000FEE7FEE7FEE7FEE7C51400088901000838
:1001C0002DE9F05F0546002092469B46884606468C
:1001D000814640241BE0284641464746224600F01F
:1001E00045F953465A46C01A914110D31146184654
:1001F000224600F02CF92D1A67EB01084F462246E3
:100200000120002100F023F917EB00094E41201EC8
:10021000A4F10104DFDC484631462A464346BDE8E6
:10022000F09FD2B201E000F8012B491EFBD27047CB
:100230000022F6E710B513460A4604461946FFF7B2
:10024000F0FF204610BD2DE9FE4F81EA030404F0C3
:10025000004421F0004100944FF0000B23F00043D4
:1002600050EA01045ED052EA03045BD0C3F30A549F
:10027000C1F30A552C44A4F2F3340194A0FB0254B8
:10028000C1F3130141F48011C3F3130343F480134A
:1002900001FB024400FB034E840A970A44EA81549E
:1002A00047EA8357A4FB076802958D0A05FB07857B
:1002B0004FEA932C04FB0C542705029D4FEA065885
:1002C00047EA1637B5EB08056EEB070C870E920E62
:1002D00047EA811742EA8312A7FB0201B6EB0B0142
:1002E00064EB00042B0D43EA0C335E1844EB1C5006
:1002F000DA465146E7FB0201C5F313044FEA0B331C
:1003000043EA14534FEA0432019C43EA0603A4F182
:100310000C040294009CCDE900B400F0C6F803B0D0
:10032000BDE8F08F00200146F9E72DE9F04D81EAA4
:10033000030404F0004B21F0004514464FF0000A7E
:1003400023F0004150EA050220D054EA01021DD0FA
:10035000C5F30A570246C5F31303C1F31300C1F3F3
:100360000A5640F4801543F48013A7EB0608101BCF
:10037000D64608F2FD3873EB050002D308F10108F8
:1003800001E092185B41B8F1000F03DA002001464A
:10039000BDE8F08D00204FF48011064684460EE043
:1003A000171B73EB050705D3121B63EB050306430D
:1003B0004CEA010C49084FEA300092185B4150EAC0
:1003C0000107EDD152EA030012D082EA040083EA69
:1003D0000501084305D0101BAB4106D201220023C2
:1003E00006E000224FF0004302E06FF001025310DC
:1003F0001AEB06004CEB085110EB0A0041EB0B0125
:10040000BDE8F04D00F042B80EB540F23341029124
:100410000021CDE900110A460B4600F046F803B072
:1004200000BD30B50B46014600202022012409E022
:1004300021FA02F59D4205D303FA02F5491B04FA9D
:1004400002F52844151EA2F10102F1DC30BD202A7C
:1004500004DB203A00FA02F1002070479140C2F11B
:10046000200320FA03F3194390407047202A04DB4D
:10047000203A21FA02F00021704721FA02F3D0401D
:10048000C2F12002914008431946704710B5141E6E
:1004900073F1000408DA401C41F1000192185B413D
:1004A0001A4301D120F0010010BD2DE9F04D924614
:1004B0009B4611B1B1FA81F202E0B0FA80F220322B
:1004C0009046FFF7C4FF04460F4640EA0A0041EA9F
:1004D0000B0153465A46084313D0114653EA010014
:1004E00019D0C8F140025046FFF7C0FF05460E463E
:1004F000504659464246FFF7AAFF084305D001205F
:1005000004E020463946BDE8F08D0020054346EA68
:10051000E0762C4337430A986305E40AA0EB080011
:100520000022FD0A44EA47540A3002D50020014661
:10053000E9E7010510196941DDE90845001969413C
:10054000BDE8F04DA2E72DE9FE4F804681EA0300A9
:10055000C00F0C46009021F0004123F00045B8EB9D
:100560000200A94105D24046214690461C460B4652
:10057000024623F00040104347D0270DC7F30A007E
:10058000C3F30A510290401A019040286BDAC3F37A
:10059000130040F4801B0098924620B10023D2EB58
:1005A000030A63EB0B0B01985946C0F14002504619
:1005B000FFF74DFF06460D4650465946019A00F09A
:1005C000ABF810EB08006141002487EA115284EA7D
:1005D000E7731A4340D0009A62B3019A012A4FEAA6
:1005E000075215DC001B61EB02014FF0004202EAEA
:1005F0000752CDE90042001C41F5801132462B46DE
:10060000FFF753FF03B0BDE8F08F40462146F9E7FE
:10061000001B61EB0201001C41F5801300185B41D7
:100620002018A2F5001747EB030140EAD570B61970
:100630006D4111E06D084FEA360645EAC0754FEA94
:100640000752001B61EB0201001C41F580114908B3
:100650004FEA30000019514132462B4603B0BDE845
:10066000F04FFFF713BF0098012240000023D0EBAA
:10067000020263EBE073009821464FEAE074B8EBA6
:10068000000061EB0401E9E783F000435BE781F0E0
:10069000004158E7C1F30A52C1F3130140F2FF339E
:1006A00041F480119A4202DA00200146704740F27C
:1006B00033439A42A2F2334202DC5242FFF7D6BEE3
:1006C000FFF7C5BE30B5041E71F1000404DB4FF026
:1006D0000044404264EB0101141E73F1000405DB89
:1006E0001C464FF00043524263EB0403994208BF9B
:1006F000904230BD064C074D06E0E06840F0010333
:1007000094E8070098471034AC42F6D3FFF740FD59
:1007100088200008A8200008202A06DBCB17203AF2
:1007200041FA02F043EAE07306E041FA02F3D040F6
:10073000C2F120029140084319467047FEE7704716
:100740002DE9F84F00224FF0010803254FF00F0E5E
:100750000B6808FA02F42340A3426ED14E68012EC2
:1007600005D0022E03D0112E01D0122E12D1866890
:100770004FEA420C05FA0CF7BE43CF6807FA0CF7B4
:10078000374387604668A6430C79C4F3001494404D
:1007900034434460C668570005FA07FC8C6826EAB3
:1007A0000C06BC403443C4604C68022C01D0122CAF
:1007B00013D1D40800EB8404A346D4F82090540746
:1007C0004FEAD46A0EFA0AF629EA06090E6906FA11
:1007D0000AF646EA0906CBF8206006680C7926EA94
:1007E0000C0604F00304BC40344304604C68E4008D
:1007F00065D5364C266846F480462660246822F08B
:10080000030604F480440094314C3444A446D4F8E4
:1008100008489607370F0EFA07F6B4432D4EB0423C
:1008200001D1002624E02C4EB04201D101261FE068
:100830002A4EB04202D102261AE040E0284EB042D1
:1008400001D1032614E0274EB04201D104260FE067
:10085000254EB04201D105260AE0244EB04201D116
:10086000062605E0224EB04201D1072600E0082608
:10087000BE402643CCF808681E4E34684F689C433F
:10088000FF0300D51C4334601A4C241D26684F68B2
:100890009E43BF0300D51E432660164E08363468BB
:1008A0004F689C43FF0200D51C433460114E0C3648
:1008B00034684F689C43BF0200D51C433460521C0F
:1008C000102AFFF445AFBDE8F88F0000443802401D
:1008D00000300140000002400004024000080240D5
:1008E000000C0240001002400014024000180240B8
:1008F000001C0240003C01400AB1816170470904BC
:10090000FBE7000001488068704700000C000020F1
:100910000248816802781144816070470C00002011
:100920000B4810B5016841F400710160016841F4A1
:1009300080610160016841F480710160032000F072
:1009400071F8002000F006F800F024F8002010BD37
:10095000003C024070B50D4D04464FF47A71287882
:10096000B1FBF0F00A490968B1FBF0F000F03BFB85
:1009700048B9102C07D200222146501E00F032F850
:1009800000206C6070BD012070BD00000C000020D4
:10099000180000200B4882B0016841F480410160DA
:1009A000006800F4804000900648001F016841F094
:1009B00080510160006800F080500090072002B074
:1009C00000F030B844380240002809DB00F01F0274
:1009D000012191404009800000F1E020C0F80011A1
:1009E00070470000F0B40E4B1B680C46C3F30223A3
:1009F000C3F10705042D00D90425191D072901D2CB
:100A0000002300E0DB1E012606FA05F1491E214005
:100A100099409E40761E16403143F0BC00F03ABE2D
:100A20000CED00E0064900F0070208684FF6FF03EE
:100A3000184040EA0220034A104308607047000053
:100A40000CED00E00000FA052DE9F0470E46050028
:100A500065D0DFF81481D8F80000F7B200F00F007D
:100A6000B04207D288F80070D8F8000000F00F00FC
:100A7000B04254D128683D4C810712D5400703D5B8
:100A8000206840F4E05020602878000703D52068F3
:100A900040F4604020602068A96820F0F00008431E
:100AA00020602878C0072DD03049686808390128AF
:100AB00012D0022813D0032811D009688907002911
:100AC0002DDA216821F0030101432160FFF71AFFAD
:100AD000814641F2883A0EE009688903EFE7096828
:100AE0008901ECE7FFF70EFFA0EB0901514502D9A0
:100AF0000320BDE8F0872068696800F00C00B0EBC7
:100B0000810FEFD1D8F80010404601F00F01B1423B
:100B100007D90770006800F00F00B04201D0012033
:100B2000E7E72878400705D52068E96820F4E05019
:100B3000084320602878000706D52068296920F43A
:100B4000604040EAC100206000F028F82168084AAF
:100B5000C1F30311515CC8400649086006480068AB
:100B6000FFF7F8FE0020C4E7003C024008380240CE
:100B700070200008180000201000002004480549DB
:100B800000680968044AC1F38221515CC84070477B
:100B9000180000200838024080200008154810B5D1
:100BA000006810F00C02144813D04110042A0FD032
:100BB000082A0ED10F4C241F2268236802F03F023E
:100BC0005B0207D52068C0F38810A0FB010106E096
:100BD000084610BD2168C1F38811A1FB0001002364
:100BE000FFF7EEFA2168C1F30141491C4900B0FB4F
:100BF000F1F010BD083802400024F400F0B51F4C9D
:100C000016460D461D4B002102220327283C0028D2
:100C1000186887B019D040F004001860186800F018
:100C20000400059010020090CDE90121CDE9037187
:100C300069461348FFF784FD206845EAC60120F0A5
:100C400078400843206007B0F0BD40F00100186014
:100C5000186800F0010005904FF480700090CDE915
:100C60000121CDE9037169460648FFF769FD206857
:100C7000354320F0EC602843E4E7000030380240C0
:100C800000080240000002402DE9F84F040076D031
:100C90002078DFF838A3CE4DC00749D0DAF800102D
:100CA0005046C1F38101012908D00068C0F38100DA
:100CB00002280AD1281D0068400206D52868800352
:100CC00036D560680028E2D032E06068B0F5803F39
:100CD00010D0B0F5A02F286810D020F48030286004
:100CE000286820F4802028606068A0B1FFF70AFE21
:100CF00006460CE0286840F48030F4E740F4802099
:100D00002860F7E7FFF7FEFD801B642873D828688A
:100D10008003F7D50CE0FFF7F5FD064605E000BFC0
:100D2000FFF7F0FD801B6428F0D828688003F7D413
:100D30002078DFF8A08280074FF000093ED5DAF86E
:100D40000010504611F00C0F09D00068C0F381006C
:100D500002280BD19D48001F0068400206D4286875
:100D6000800715D5E068012809D111E0E068B8B125
:100D70000120C8F80000FFF7C5FD064605E020E1A8
:100D8000FFF7C0FD801B0228C0D828688007F7D570
:100D90002868216920F0F80040EAC10028600DE0D1
:100DA000C8F80090FFF7AEFD064604E0FFF7AAFD85
:100DB000801B02281FD828688007F7D420780007F6
:100DC00022D5824E844861696C3671B1012101607F
:100DD000FFF798FD074604E0FFF794FDC01B0228CB
:100DE00009D830688007F7D50EE0C0F80090FFF70B
:100DF00089FD074605E082E0FFF784FDC01B02285D
:100E00007DD830688007F7D42078400768D5DFF8B0
:100E1000BCB100270BF1380BDBF80000C0000BD48D
:100E2000DBF8001041F08051CBF80010DBF8000037
:100E3000012700F080500090684E3068C00510D443
:100E4000306840F480703060FFF75CFD009005E092
:100E5000FFF758FD0099401A022850D83068C005A5
:100E6000F6D55A4EA068683601280FD0052830689C
:100E700010D020F001003060306820F004003060B5
:100E8000A068B8B1FFF73EFD00900FE0306840F079
:100E90000100F4E740F004003060F7E7FFF732FDAF
:100EA0000099411A41F28830814266D83068800743
:100EB000F4D50EE0FFF726FD009007E0FFF722FDD6
:100EC0000099411A41F28830814256D83068800733
:100ED000F4D42FB1DBF8001021F08051CBF80010D2
:100EE000A069D0B3DAF800205146C2F38102022A89
:100EF0004AD00228484607D0C8F8600000E03CE02D
:100F0000FFF700FD04463BE04746C8F86000FFF7E6
:100F1000F9FC064605E000BFFFF7F4FC801B022841
:100F20002BD828688001F7D4D4E907010843A16AC7
:100F30002B4A490802EB0141626A41EA82110843E7
:100F400094F82C1040EA01612048001F0160012044
:100F50003866FFF7D7FC044605E034E0FFF7D2FC23
:100F6000001B022809D828688001F7D52BE000BFB4
:100F7000FFF7C8FC001B022802D90320BDE8F88F48
:100F800028688001F4D41EE00128F7D00868E269DF
:100F900000F48001914214D1226A00F03F01914295
:100FA0000FD147F6C071626A0140914209D1A26A2D
:100FB00000F44031914204D1E16A00F0706088424F
:100FC00001D00120DAE70020D8E70000083802400D
:100FD0000038024000004742800E47420070004047
:100FE0000000FFFF704710B5401EB0F1807F01D3B5
:100FF000012010BD4FF0E02460610F21601700F068
:1010000049FB0020A06107202061002010BD10B521
:10101000FFF7E8FF10BD7047704700000B494A78A2
:10102000002A0BD10A780B1D012A08D0022A05D10B
:101030000068406B58600120087048707047006875
:10104000406B18600220087070470000000000200C
:101050002DE9F041044690F83C000D4601283DD0B2
:10106000012684F83C60022084F83D00AAB3042ADB
:1010700046D02068082A55D0D5E90027E968036AD8
:1010800023F480530362D0F81CC0036A2CF4407C24
:101090004CEA07274FF6FF7C27F470470CEA013132
:1010A00039434FF4204723F4204307EA02321A431E
:1010B000C16102622068C16921F44061C161206898
:1010C000C169AA6841EA0221C0F81C1084F83D6099
:1010D000002084F83C00BDE8F08101E00220FAE73E
:1010E000D5E90012EB68206800F064FA2068816995
:1010F00021F00C01816120688169AA6811430FE029
:10110000D5E90012EB68206800F094FA2068816944
:1011100021F44061816120688169AA6841EA022165
:101120008161D3E7D5E9002C2F7B016A21F480711E
:101130000162C169036A21F0030141EA0C0121F057
:10114000F00C39074FF420674CEA116123F4206357
:1011500007EA02221A43C16102622068C16921F0D4
:101160000C01C1612068C169AA681143ACE710B5E0
:10117000040003D094F83D0010B107E0012010BD39
:10118000002084F83C00204600F00CF8022084F88F
:101190003D00211D206800F0A9F9012084F83D00E0
:1011A000002010BD00B5006887B0B0F1804F29D194
:1011B00014216846FFF73CF813480021026842F00A
:1011C00001020260006800F0010005900E4810382E
:1011D000026842F0010202600068022200F0010091
:1011E00005900120CDE9000202910490694607486C
:1011F000FFF7A6FA002211461C20FFF7F3FB1C2084
:10120000FFF7E2FB07B000BD40380240000002409B
:1012100070B50446006801694FF00005C9438907AD
:1012200015D4C168C943890711D4E91E01610120A1
:101230002077206880698007204602D0FFF7EEFE05
:1012400004E000F098F8204600F096F82577206832
:101250000169C943490717D4C168C943490713D471
:101260006FF004010161022020772068806910F48A
:10127000407F204602D0FFF7D1FE04E000F07BF86B
:10128000204600F079F8257720680169C9430907ED
:1012900016D4C168C943090712D46FF0080101616F
:1012A000042020772068C0698007204602D0FFF71D
:1012B000B5FE04E000F05FF8204600F05DF8257709
:1012C00020680169C943C90617D4C168C943C90662
:1012D00013D46FF010010161082020772068C069E5
:1012E00010F4407F204602D0FFF798FE04E000F0A3
:1012F00042F8204600F040F8257720680169C9438C
:10130000C90708D1C168C943C90704D1891E016151
:10131000204600F032F820680169C943090609D463
:10132000C168C943090605D46FF0800101612046F8
:10133000FFF771FE20680169C943490609D4C168F5
:10134000C943490605D46FF040010161204600F011
:1013500015F820680169C94389060BD4C168C943DF
:10136000890607D46FF0200101612046BDE8704076
:10137000FFF752BE70BD7047704770477047FEE779
:1013800000B58DB030216846FEF752FF0420009072
:10139000012002906846FFF777FC00224FF400110D
:1013A0001046FFF72BFC0DB000BD000070B586B0F5
:1013B00014216846FEF73CFF15480024016841F0FF
:1013C00010010160016801F010010591016841F010
:1013D0008001016000680F4E00F0800005902246F9
:1013E00020213046FFF788FA202000900125CDE922
:1013F0000154694630460394FFF7A2F90648009568
:10140000CDE9010469460548FFF79AF906B070BDB9
:10141000303802400010024000001110000002406D
:10142000FEE770477047704710B5FFF771FABDE8E7
:101430001040FFF7ECBD000030B593B03021684696
:10144000FEF7F6FE14210CA8FEF7F2FE1B4800255D
:10145000016841F080510160006800F080501190F7
:101460001748016841F4804101600068022400F4DB
:1014700080401190052000904FF4803001900120B1
:1014800002908005CDE9064004200890A820CDE90F
:10149000090407200B906846FFF7F6FB0CA90F2004
:1014A00081E831004FF4A0500F90E0021090052128
:1014B0000CA8FFF7C9FA13B030BD00004038024055
:1014C000007000400548016841F470010160034963
:1014D0004FF00060803908607047000088ED00E040
:1014E0000148FFF795BE00001C000020F0B502681F
:1014F000254C264D264E274F274B4FF0804CA042BF
:1015000009D0604507D0A84205D0B04203D0B84208
:1015100001D0984204D122F0700E4A6842EA0E02CD
:10152000A0421BD0604519D0A84217D0B04215D0B8
:10153000B84213D0984211D0184DA8420ED0184D81
:10154000A8420BD0174DA84208D0174DA84205D08D
:10155000164DA84202D0164DA84203D122F4407580
:10156000CA682A434D6922F080022A4302608A68D1
:10157000C2620A688262A04201D0984201D1096920
:10158000016301214161F0BD000001400004004001
:1015900000080040000C00400004014000400140F1
:1015A000004401400048014000180040001C004079
:1015B0000020004070B5046A24F0010404628469CC
:1015C000056A154EB04214D0B0F1804F11D0134EC1
:1015D000B0420ED0124EB0420BD0124EB04208D0E4
:1015E000114EB04205D0114EB04202D0104EB04262
:1015F00003D124F00304144301E044F001041A076A
:1016000024F0F00444EA126225F00A0301F00A0112
:1016100019438261016270BD000001400004004076
:1016200000080040000C0040000401400040014060
:101630000018004030B5046A24F010040462846984
:10164000056A24F4407444EA022222F470444FF6FE
:10165000FF7202EA03322243A02425F0A00304EA29
:10166000011119438261016230BDFEE70FB4084BDE
:1016700010B504A902AA039800F0EEF8044602A9E6
:10168000002000F080FC204610BC5DF814FB000038
:10169000871F00080907090E002804DB00F1E0207D
:1016A00080F80014704700F00F0000F1E02080F88F
:1016B000141D704702E008C8121F08C1002AFAD1A1
:1016C00070477047002001E001C1121F002AFBD1C2
:1016D000704700002DE9FF5F82B00021DDE9043092
:1016E000020DDDF840B0034318D044F61050A2F2CA
:1016F000FF3242431514119801281FD0A5EB0B00AF
:10170000401C5FEA000A4FF000064E4FDFF83891A8
:10171000B046504615D5CAF1000413E011980124D3
:101720004AA3012801D16FEA0B010298119AC0E97E
:101730000031C0E9024206B0BDE8F09FCBF10000E5
:10174000DFE704460021404A491842EB0450CDE946
:10175000001012E0E00707D032463B4640464946BB
:10176000FEF771FD8046894632463B4610461946D3
:10177000FEF769FD06460F466410002CEAD1DDE94C
:101780000401DDE90023BAF1000F06DAFEF75BFD84
:1017900042464B46FEF757FD05E0FEF7C6FD4246C2
:1017A0004B46FEF7C2FD04460E460022284BFEF7CC
:1017B00089FF03D84FF0FF30014607E00022254B98
:1017C00020463146FEF7BFFEFEF764FF102409E015
:1017D000002C0ADB0A220023FEF7F2FC039B3032C6
:1017E0001A55641E50EA0102F2D1641C039AC4F136
:1017F00011031444119A012A03D0012208430DD188
:101800000AE0084304D000204FF0110B119072E75A
:10181000A3EB0B056D1E0DE05B4504DD4FF00002F0
:1018200005F1010504E003DA4FF00002A5F101051E
:10183000002AECD002981199C0E90231C0E90045B4
:1018400079E70000000014400000F03F3000000085
:101850000000F0430000E03F2DE9FF4F95B09B46AC
:101860008946064600250FE2252877D10024274621
:10187000F84A0121059400E0044316F8013F203B9B
:1018800001FA03F01042F7D130782A2811D06FF016
:101890002F033078A0F13002092A16D8059A44F0B7
:1018A000020402EB820203EB42021044761C059014
:1018B000EFE759F8042B0592002A03DA504244F46A
:1018C0000054059044F00204761C30782E2816D17E
:1018D00016F8010F44F004042A280DD06FF02F02EF
:1018E0003078A0F13003092B09D807EB870302EB0E
:1018F0004303C718761CF3E759F8047B761C30784D
:101900006C280FD006DC4C2817D068280DD06A2828
:1019100014D104E0742810D07A280FD10DE044F4DB
:1019200000140AE044F4801401E044F44014727896
:10193000824202D104F58014761C761C3078662829
:101940000BD013DC582877D009DC002875D0452847
:10195000F6D04628F4D047281AD19DE118E0632834
:1019600035D0642879D0652812D195E1702873D0DC
:1019700008DC6728F1D069286FD06E280DD06F2859
:1019800006D1B5E073282CD0752875D0782874D08E
:101990005A46179990476D1C75E1C4F3025002280E
:1019A00009D003280DD0D9F8001004280DD00D60FF
:1019B00009F1040967E1D9F80010EA17C1E90052FA
:1019C000F6E7D9F800100D80F2E70D70F0E719F88E
:1019D000041B8DF8001000208DF80100EA4601205C
:1019E00003E059F804AB4FF0FF3061074FF00001FE
:1019F00002D40DE008F101018846B9420FDA8045B2
:101A0000F8DB1AF808100029F4D108E008F1010108
:101A100088468142FADB1AF808100029F6D10598A9
:101A20005B46A0EB080721463846179A00F094FA67
:101A3000284400EB080507E04DE029E10DE01AF825
:101A4000010B5A4617999047B8F10108F7D25B4647
:101A500021463846179A13E142E00A220092C4F365
:101A600002524FF0000A022A08D059F804CB032A88
:101A70004FEAEC710AD00DE029E02AE009F10701F4
:101A800021F00702F2E802C1914609E00FFA8CFC4E
:101A90004FEAEC71042A03D14FFA8CFC4FEAEC7147
:101AA000002907DA0A460021DCF1000C61EB020193
:101AB0002D2202E0220504D52B228DF804200122DC
:101AC00003E0E20701D02022F7E7904659E00A211F
:101AD00002E010220DE010214FF0000A00910BE00F
:101AE00010224FF0000A44F004040827009203E09B
:101AF00008224FF0000A0092C4F30252022A05D0D5
:101B000059F804CB0021032A08D009E009F10701A4
:101B100021F00702F2E802C1914605E01FFA8CFCB1
:101B2000042A01D10CF0FF0C4FF00008220728D541
:101B3000702806D0009B83F0100353EA0A0305D0F7
:101B40000EE040228DF80420012208E05CEA010248
:101B500006D030228DF804208DF805000222904630
:101B6000009B83F0080353EA0A030AD15CEA0102EE
:101B700001D1620705D530228DF804204FF001080D
:101B80007F1E582804D034A003900EA802900DE0C8
:101B900036A0F9E753466046009AFEF711FB8446EB
:101BA0000398825C0298401E029002705CEA010079
:101BB000F0D1029806A9081A00F1200A600702D5A0
:101BC00024F4803400E00127574502DDA7EB0A002A
:101BD00000E0002000EB0A01009005984144401A03
:101BE0000590E00306D45B462146179A059800F05D
:101BF000B3F90544002706E001A85A46C05D1799CD
:101C000090476D1C7F1C4745F6DBE0030CD55B4617
:101C10002146179A059800F09FF9054404E030200A
:101C20005A46179990476D1C0099481E009000294C
:101C3000F5DC08E0029802995A460078491C0291A6
:101C4000179990476D1CBAF10001AAF1010AF1DC65
:101C500065E1000009280100303132333435363770
:101C600038396162636465660000000030313233E8
:101C70003435363738394142434445460000000088
:101C800000F058F90544761C307800287FF4ECAD5C
:101C900019B02846BDE8F08F620700D4062709F185
:101CA000070222F0070CFCE80223E14603F000489B
:101CB0005FEA080C02D00FF2702C0DE05FEA045CC2
:101CC00002D50FF2682C07E05FEAC47C02D00FF265
:101CD000602C01E0AFF2700C4FF0FF3823F00043AE
:101CE000CDF850C065280CD006DC452809D0462820
:101CF0001DD047283DD13DE0662818D067287ED109
:101D000038E00021112F01DB112000E0781CCDE923
:101D1000000106A90EA8FFF7DDFCDDE90F010E9A10
:101D200003910021009207F1010A04914DE04FF068
:101D300000400097CDE9011006A90EA8FFF7CAFCE4
:101D4000DDE90F0203920E9B11990022DDF80CA031
:101D50000093049211B9791C00EB010AB7EB0A0059
:101D600004D4C0F1FF3007F1010A0490AAEB070088
:101D7000019044E0012F00DA01270021112F01DD3D
:101D8000112000E03846CDE9000106A90EA8FFF7B2
:101D9000A1FCDDE90F010E9A03910021049100924C
:101DA000BA4621070CD40399514500DA8A46BAF1A4
:101DB000010F05DD009AAAF10101515C302908D01C
:101DC000B84202DA10F1040F06DA0121CDE9011060
:101DD00015E0AAF10101E9E7002805DC04990144B6
:101DE0000491AAEB000102E0411C514500DD8A4646
:101DF0000499401A401C01904FF0004002902007C7
:101E000004D40198504501DBCDF8048000208DF802
:101E10004F0002980DF14F07B0F1004F25D02B2055
:101E20000E9002984FF0020800280CDA404202900F
:101E30002D200E9007E00A210298FEF7F2FA3031C9
:101E4000029007F8011DB8F10001A8F10108F2DCC9
:101E500002980028EFD1791E0E980870307800F0B3
:101E6000200040F0450007F8020D12A8C01B00F149
:101E700007081498007800B1012000EB0A010198CE
:101E800001EBE07105984144401A401E0590E003C3
:101E900006D45B462146179A059800F05DF8054484
:101EA0001498007818B15A46179990476D1CE003B2
:101EB00024D55B462146179A059800F04DF8054455
:101EC0001CE00498002807DBDDE90301884203DDFC
:101ED0000098405C179901E0179930205A469047C6
:101EE000049805F10105401C04900198401E0190E2
:101EF00004D12E205A46179990476D1CBAF1000163
:101F0000AAF1010ADDDC05E017F8010B5A46179922
:101F100090476D1CB8F10001A8F10108F4DC5B46A4
:101F20002146179A0598ABE62D0000002B00000013
:101F3000200000002DE9F041044600251E4617460A
:101F4000880404D405E039462020B0476D1C641E87
:101F5000F9D52846BDE8F0812DE9F0410446002579
:101F60001E469046C80301D5302700E0202788048C
:101F700004D505E041463846B0476D1C641EF9D5CE
:101F80002846BDE8F0810A68531C0B60107070474A
:101F90002DED048B84B0FEF7C3FCFFF74DFAFFF77D
:101FA00005FA2A4D4FF080400126C5E900060024BD
:101FB000601EC5E902402846FFF7D9F80394009453
:101FC000CDE90164002269462846FFF741F8FFF792
:101FD000D7F9DFF87C80A8F1040778780128FCD1D4
:101FE000D8E90001814201D9012601E0C043461829
:101FF000FEF7C4FD69684000B0FBF1F0FEF704FA9B
:1020000041EC100B9FED139B53EC102B51EC190B73
:10201000FEF78BF941EC180B3046FEF7F5F953EC5F
:10202000182BFEF710F941EC100B51EC190B53EC87
:10203000102BFEF77AF941EC100B08A153EC102B92
:102040004846FFF713FB7C70C7E700001C00002028
:1020500004000020000000000000F03F667271756F
:10206000656E63792069732025660D0A0000000003
:102070000000000000000000010203040607080938
:102080000000000001020304A82000080000002056
:102090001C000000B4160008C42000081C0000202A
:1020A00044040000C4160008010000000000000005
:1020B000000000000100000010000000000000000F
:0420C0000024F40004
:040000050800018965
:00000001FF
