:020000040800F2
:10000000500400209D010008390E0008350E00083C
:10001000370E0008A9020008611100080000000066
:100020000000000000000000000000003D0E00087D
:10003000AB020008000000003B0E00083F0E000865
:10004000B7010008B7010008B7010008B7010008B0
:10005000B7010008B7010008B7010008B7010008A0
:10006000B7010008B7010008B7010008B701000890
:10007000B7010008B7010008B7010008B701000880
:10008000B7010008B7010008B7010008B701000870
:10009000B7010008B7010008B7010008B701000860
:1000A000B7010008B7010008B7010008B701000850
:1000B000ED0E0008B7010008B7010008B7010008FD
:1000C000B7010008B7010008B7010008B701000830
:1000D000B7010008B7010008B7010008B701000820
:1000E000B7010008B7010008B7010008B701000810
:1000F000B7010008B7010008B7010008B701000800
:10010000B7010008B7010008B7010008B7010008EF
:10011000B7010008B7010008B7010008B7010008DF
:10012000B7010008B7010008B7010008B7010008CF
:10013000B7010008B7010008B7010008B7010008BF
:10014000B7010008B7010008B7010008B7010008AF
:10015000B7010008B7010008B7010008B70100089F
:10016000B7010008B7010008B7010008B70100088F
:10017000B7010008B7010008B7010008000000003F
:10018000B7010008B7010008DFF80CD000F07AF8DA
:1001900000480047A111000850040020064880478D
:1001A00006480047FEE7FEE7FEE7FEE7FEE7FEE75C
:1001B000FEE7FEE7FEE7FEE7D10E00088901000832
:1001C0002DE9F05F0546002092469B46884606468C
:1001D000814640241BE0284641464746224600F01F
:1001E00041F853465A46C01A914110D31146184659
:1001F000224600F028F82D1A67EB01084F462246E8
:100200000120002100F01FF817EB00094E41201ECD
:10021000A4F10104DFDC484631462A464346BDE8E6
:10022000F09FD2B201E000F8012B491EFBD27047CB
:100230000022F6E710B513460A4604461946FFF7B2
:10024000F0FF204610BD202A04DB203A00FA02F11C
:10025000002070479140C2F1200320FA03F31943B4
:1002600090407047202A04DB203A21FA02F0002156
:10027000704721FA02F3D040C2F1200291400843B6
:1002800019467047064C074D06E0E06840F0010350
:1002900094E8070098471034AC42F6D3FFF778FF94
:1002A0005012000870120008FEE7704770B504464F
:1002B00000F0EAF80546601C02D0044800780444C7
:1002C00000F0E2F8401BA042FAD370BD000000200D
:1002D0002DE9F84F00224FF0010803254FF00F0ED3
:1002E0000B6808FA02F42340A3426ED14E68012E37
:1002F00005D0022E03D0112E01D0122E12D1866805
:100300004FEA420C05FA0CF7BE43CF6807FA0CF728
:10031000374387604668A6430C79C4F300149440C1
:1003200034434460C668570005FA07FC8C6826EA27
:100330000C06BC403443C4604C68022C01D0122C23
:1003400013D1D40800EB8404A346D4F820905407BA
:100350004FEAD46A0EFA0AF629EA06090E6906FA85
:100360000AF646EA0906CBF8206006680C7926EA08
:100370000C0604F00304BC40344304604C68E40001
:1003800065D5364C266846F480462660246822F0FF
:10039000030604F480440094314C3444A446D4F859
:1003A00008489607370F0EFA07F6B4432D4EB042B1
:1003B00001D1002624E02C4EB04201D101261FE0DD
:1003C0002A4EB04202D102261AE040E0284EB04246
:1003D00001D1032614E0274EB04201D104260FE0DC
:1003E000254EB04201D105260AE0244EB04201D18B
:1003F000062605E0224EB04201D1072600E008267D
:10040000BE402643CCF808681E4E34684F689C43B3
:10041000FF0300D51C4334601A4C241D26684F6826
:100420009E43BF0300D51E432660164E083634682F
:100430004F689C43FF0200D51C433460114E0C36BC
:1004400034684F689C43BF0200D51C433460521C83
:10045000102AFFF445AFBDE8F88F00004438024091
:100460000030014000000240000402400008024049
:10047000000C02400010024000140240001802402C
:10048000001C0240003C01400148806870470000A9
:1004900000000020024881680278114481607047A2
:1004A000000000200B4810B5016841F400710160A4
:1004B000016841F480610160016841F4807101606C
:1004C000032000F071F8002000F006F800F024F896
:1004D000002010BD003C024070B50D4D04464FF4A5
:1004E0007A712878B1FBF0F00A490968B1FBF0F0A5
:1004F00000F0E5FA48B9102C07D200222146501E20
:1005000000F032F800206C6070BD012070BD00006A
:10051000000000200C0000200B4882B0016841F46C
:1005200080410160006800F4804000900648001F90
:10053000016841F080510160006800F08050009037
:10054000072002B000F030B844380240002809DB30
:1005500000F01F02012191404009800000F1E020DD
:10056000C0F8001170470000F0B40E4B1B680C4639
:10057000C3F30223C3F10705042D00D90425191D77
:10058000072901D2002300E0DB1E012606FA05F14F
:10059000491E214099409E40761E16403143F0BCD2
:1005A00000F0DFBD0CED00E0064900F0070208682E
:1005B0004FF6FF03184040EA0220034A1043086048
:1005C000704700000CED00E00000FA052DE9F0474F
:1005D0000E46050065D0DFF81481D8F80000F7B2A8
:1005E00000F00F00B04207D288F80070D8F8000081
:1005F00000F00F00B04254D128683D4C810712D55D
:10060000400703D5206840F4E050206028780007B8
:1006100003D5206840F4604020602068A96820F07D
:10062000F000084320602878C0072DD03049686862
:100630000839012812D0022813D0032811D00968E4
:10064000890700292DDA216821F003010143216087
:10065000FFF71AFF814641F2883A0EE009688903E4
:10066000EFE709688901ECE7FFF70EFFA0EB09014E
:10067000514502D90320BDE8F0872068696800F081
:100680000C00B0EB810FEFD1D8F80010404601F01C
:100690000F01B14207D90770006800F00F00B042A7
:1006A00001D00120E7E72878400705D52068E968F0
:1006B00020F4E050084320602878000706D5206821
:1006C000296920F4604040EAC100206000F018F879
:1006D0002168084AC1F30311515CC840064908600B
:1006E00006480068FFF7F8FE0020C4E7003C02401F
:1006F00008380240401200080C00002004000020CE
:10070000154810B5006810F00C02144813D04110C1
:10071000042A0FD0082A0ED10F4C241F2268236808
:1007200002F03F025B0207D52068C0F38810A0FBEF
:10073000010106E0084610BD2168C1F38811A1FB44
:1007400000010023FFF73CFD2168C1F30141491C72
:100750004900B0FBF1F010BD083802400024F4005D
:100760002DE9F84F040076D02078DFF838A3CE4D7D
:10077000C00749D0DAF800105046C1F381010129C1
:1007800008D00068C0F3810002280AD1281D006843
:10079000400206D52868800336D560680028E2D07C
:1007A00032E06068B0F5803F10D0B0F5A02F286827
:1007B00010D020F480302860286820F48020286041
:1007C0006068A0B1FFF760FE06460CE0286840F4C0
:1007D0008030F4E740F480202860F7E7FFF754FE0C
:1007E000801B642873D828688003F7D50CE0FFF7D6
:1007F0004BFE064605E000BFFFF746FE801B64285F
:10080000F0D828688003F7D42078DFF8A08280072A
:100810004FF000093ED5DAF80010504611F00C0FE9
:1008200009D00068C0F3810002280BD19D48001F49
:100830000068400206D42868800715D5E0680128C2
:1008400009D111E0E068B8B10120C8F80000FFF755
:100850001BFE064605E020E1FFF716FE801B02287E
:10086000C0D828688007F7D52868216920F0F800EB
:1008700040EAC10028600DE0C8F80090FFF704FED0
:10088000064604E0FFF700FE801B02281FD82868F8
:100890008007F7D42078000722D5824E844861690A
:1008A0006C3671B101210160FFF7EEFD074604E0EF
:1008B000FFF7EAFDC01B022809D830688007F7D58A
:1008C0000EE0C0F80090FFF7DFFD074605E082E08C
:1008D000FFF7DAFDC01B02287DD830688007F7D407
:1008E0002078400768D5DFF8BCB100270BF1380B42
:1008F000DBF80000C0000BD4DBF8001041F08051A1
:10090000CBF80010DBF80000012700F080500090C9
:10091000684E3068C00510D4306840F48070306094
:10092000FFF7B2FD009005E0FFF7AEFD0099401A19
:10093000022850D83068C005F6D55A4EA0686836EF
:1009400001280FD00528306810D020F00100306059
:10095000306820F004003060A068B8B1FFF794FD63
:1009600000900FE0306840F00100F4E740F0040030
:100970003060F7E7FFF788FD0099411A41F28830AF
:10098000814266D830688007F4D50EE0FFF77CFD21
:10099000009007E0FFF778FD0099411A41F2883096
:1009A000814256D830688007F4D42FB1DBF80010AC
:1009B00021F08051CBF80010A069D0B3DAF8002004
:1009C0005146C2F38102022A4AD00228484607D083
:1009D000C8F8600000E03CE0FFF756FD04463BE04D
:1009E0004746C8F86000FFF74FFD064605E000BF28
:1009F000FFF74AFD801B02282BD828688001F7D416
:100A0000D4E907010843A16A2B4A490802EB0141D6
:100A1000626A41EA8211084394F82C1040EA0161AD
:100A20002048001F016001203866FFF72DFD0446B5
:100A300005E034E0FFF728FD001B022809D82868EC
:100A40008001F7D52BE000BFFFF71EFD001B022839
:100A500002D90320BDE8F88F28688001F4D41EE095
:100A60000128F7D00868E26900F48001914214D1AE
:100A7000226A00F03F0191420FD147F6C071626ACD
:100A80000140914209D1A26A00F44031914204D15F
:100A9000E16A00F07060884201D00120DAE70020AE
:100AA000D8E7000008380240003802400000474202
:100AB000800E4742007000400000FFFF704710B5F5
:100AC000401EB0F1807F01D3012010BD4FF0E02423
:100AD00060610F21601700F044FB0020A061072037
:100AE0002061002010BD10B5FFF7E8FF10BD704772
:100AF0007047704770B50446006801694FF0000503
:100B0000C943890715D4C168C943890711D4E91EAF
:100B1000016101202077206880698007204602D08B
:100B2000FFF7E7FF04E000F0BFF8204600F05CF9B3
:100B3000257720680169C943490717D4C168C943AB
:100B4000490713D46FF00401016102202077206867
:100B5000806910F4407F204602D0FFF7CAFF04E00E
:100B600000F0A2F8204600F03FF9257720680169DF
:100B7000C943090716D4C168C943090712D46FF0E5
:100B800008010161042020772068C06980072046A1
:100B900002D0FFF7AEFF04E000F086F8204600F038
:100BA00023F9257720680169C943C90617D4C168AC
:100BB000C943C90613D46FF01001016108202077E2
:100BC0002068C06910F4407F204602D0FFF791FFF3
:100BD00004E000F069F8204600F006F92577206867
:100BE0000169C943C90708D1C168C943C90704D10C
:100BF000891E0161204600F01BF920680169C94384
:100C0000090609D4C168C943090605D46FF08001FB
:100C100001612046FFF76BFF20680169C94349065F
:100C200009D4C168C943490605D46FF04001016188
:100C3000204600F0FEF820680169C94389060BD4FC
:100C4000C168C943890607D46FF0200101612046BD
:100C5000BDE87040FFF74CBF70BD000010B586B016
:100C6000044614216846FFF7E3FA2068B0F1804F8C
:100C700014D10B480021026842F0010202600068B2
:100C8000022200F00100059001200090CDE9012131
:100C9000CDE9031069460348FFF71AFB06B010BD03
:100CA0003038024000000240704770B5044690F8AA
:100CB0003C000D4601280DD0012684F83C6002203E
:100CC00084F83D0042B1042A18D0082A2AD00C2A00
:100CD0004DD139E0022070BD206800F07FF9206816
:100CE000816941F0080181612068816921F0040176
:100CF0008161206881692A69114311E0206800F050
:100D00009DF92068816941F40061816120688169F1
:100D100021F480618161206881692A6941EA0221A8
:100D2000816124E0206800F0BFF92068C16941F0CA
:100D30000801C1612068C16921F00401C161206816
:100D4000C1692A69114311E0206800F0E1F92068C7
:100D5000C16941F40061C1612068C16921F4806109
:100D6000C1612068C1692A6941EA0221C16184F830
:100D70003D60002084F83C0070BD10B5040003D035
:100D800094F83D0010B107E0012010BD002084F868
:100D90003C00204600F00CF8022084F83D00211DA4
:100DA000206800F0A9F8012084F83D00002010BD63
:100DB00008B50068B0F1804F12D10A48016841F0CF
:100DC000010101600068002200F0010000900F2185
:100DD0001C20FFF7C9FBBDE808401C20FFF7B6BB8D
:100DE00008BD0000403802407047000010B50446BE
:100DF0000068012200F0E4F80B492068884202D024
:100E00000A49884203D1416C41F4004141642068A1
:100E1000816801F00701062903D0016841F0010152
:100E20000160002010BD00000000014000040140EE
:100E300070477047FEE7FEE770477047704710B590
:100E4000FFF728FBBDE81040FFF74DBE30B593B06B
:100E500030216846FFF7ECF914210CA8FFF7E8F9F8
:100E600019480025016841F080510160006800F0D8
:100E7000805011901548016841F48041016000687C
:100E8000022400F48040119001200390102004906F
:100E9000009406940820CDE90750A820CDE9090464
:100EA00007200B906846FFF75BFC0CA90F2081E838
:100EB00031004FF4A0500F90E002109005210CA8D3
:100EC000FFF784FB13B030BD403802400070004093
:100ED0000548016841F47001016003494FF000606A
:100EE000803908607047000088ED00E00148FFF796
:100EF00001BE000010000020F0B50268254C264D10
:100F0000264E274F274B4FF0804CA04209D060451A
:100F100007D0A84205D0B04203D0B84201D09842D1
:100F200004D122F0700E4A6842EA0E02A0421BD0A1
:100F3000604519D0A84217D0B04215D0B84213D09E
:100F4000984211D0184DA8420ED0184DA8420BD08F
:100F5000174DA84208D0174DA84205D0164DA842FB
:100F600002D0164DA84203D122F44075CA682A4324
:100F70004D6922F080022A4302608A68C2620A68D0
:100F80008262A04201D0984201D109690163012126
:100F90004161F0BD00000140000400400008004035
:100FA000000C0040000401400040014000440140AA
:100FB0000048014000180040001C00400020004094
:100FC00010B501F01F030121046A99408C430462AB
:100FD000016A9A401143016210BD0000F0B5026A37
:100FE00022F001020262036A42688469124E24F010
:100FF00073050C682C4323F002058B682B430D4DC1
:10100000A84201D0B04205D123F00807CB683B438A
:1010100023F00403A84201D0B04205D14D6922F467
:10102000407215438A692A4342608461496841637A
:101030000362F0BD0000014000040140F0B5026A07
:1010400022F010020262026A436884690D6824F487
:10105000E64444EA05248D6822F0200242EA0512A3
:101060000F4D104EA84201D0B04206D1CF6822F0F9
:10107000800242EA071222F04002A84201D0B042A8
:1010800007D14D6923F4406343EA85038D6943EA40
:10109000850343608461496881630262F0BD00009A
:1010A0000000014000040140F0B5026A22F48072A1
:1010B0000262026A4368C46922F4007224F0730574
:1010C0000C68124E2C438D6842EA05220E4DA84250
:1010D00001D0B04206D1CF6822F4006242EA072272
:1010E00022F48062A84201D0B04207D14D6923F4B6
:1010F000405343EA05138D6943EA05134360C46115
:101100004968C1630262F0BD000001400004014073
:1011100030B5026A22F480520262046A4268C369EE
:101120000D6823F4E64343EA05238D6824F4005454
:1011300044EA0534084DA84202D0084DA84204D123
:101140004D6922F4804242EA85124260C3614968D7
:101150000164046230BD0000000001400004014051
:10116000FEE70907090E002804DB00F1E02080F803
:101170000014704700F00F0000F1E02080F8141D0B
:10118000704702E008C8121F08C1002AFAD1704750
:101190007047002001E001C1121F002AFBD17047F7
:1011A00088B00024FFF77EF9FFF750FE22480026A2
:1011B000016841F080010160016801F08001009147
:1011C000016841F00101016000681C2100F001008C
:1011D00000906846FFF72CF8184D4FF080402860CB
:1011E0000420686042F20F70E8602846FFF7C5FDF2
:1011F0006020CDE900060022694628460296FFF7E6
:1012000054FD2846FFF72AFD00212846FFF7EEFD92
:1012100005E028680A3444630120FFF747F8E868CE
:10122000A042F6D805E028680A3C44630120FFF795
:101230003DF8002CF3D0F6E73038024010000020D3
:101240000000000000000000010203040607080976
:101250007012000800000020100000008211000839
:1012600080120008100000204004000092110008C5
:101270000100000010000000000000000024F40045
:040000050800018965
:00000001FF
