:020000040800F2
:10000000500400209D0100085F0C0008ED0B000863
:100010005D0C0008A9020008350E00080000000071
:10002000000000000000000000000000650C000857
:10003000AB02000800000000610C0008670C00081B
:10004000B7010008B7010008B7010008B7010008B0
:10005000B7010008630C0008B7010008B7010008E9
:10006000B7010008B7010008B7010008B701000890
:10007000B7010008B7010008B7010008B701000880
:10008000B7010008B7010008B7010008B701000870
:10009000B7010008B7010008B7010008B701000860
:1000A000B7010008B7010008B7010008B701000850
:1000B000B7010008B7010008B7010008B701000840
:1000C000B7010008B7010008B7010008B701000830
:1000D000B7010008B7010008B7010008B701000820
:1000E000B7010008B7010008B7010008B701000810
:1000F000B7010008B7010008B7010008B701000800
:10010000B7010008B7010008B7010008B7010008EF
:10011000B7010008B7010008B7010008B7010008DF
:10012000B7010008B7010008B7010008B7010008CF
:10013000B7010008B7010008B7010008B7010008BF
:10014000B7010008B7010008B7010008B7010008AF
:10015000B7010008B7010008B7010008B70100089F
:10016000B7010008B7010008B7010008B70100088F
:10017000B7010008B7010008B7010008000000003F
:10018000B7010008B7010008DFF80CD000F07AF8DA
:1001900000480047750E00085004002006488047BC
:1001A00006480047FEE7FEE7FEE7FEE7FEE7FEE75C
:1001B000FEE7FEE7FEE7FEE7F10C00088901000814
:1001C0002DE9F05F0546002092469B46884606468C
:1001D000814640241BE0284641464746224600F01F
:1001E00041F853465A46C01A914110D31146184659
:1001F000224600F028F82D1A67EB01084F462246E8
:100200000120002100F01FF817EB00094E41201ECD
:10021000A4F10104DFDC484631462A464346BDE8E6
:10022000F09FD2B201E000F8012B491EFBD27047CB
:100230000022F6E710B513460A4604461946FFF7B2
:10024000F0FF204610BD202A04DB203A00FA02F11C
:10025000002070479140C2F1200320FA03F31943B4
:1002600090407047202A04DB203A21FA02F0002156
:10027000704721FA02F3D040C2F1200291400843B6
:1002800019467047064C074D06E0E06840F0010350
:1002900094E8070098471034AC42F6D3FFF778FF94
:1002A000C40E0008E40E0008FEE770472DE9F84F81
:1002B00000224FF0010803254FF00F0E0B6808FADB
:1002C00002F42340A3426ED14E68012E05D0022EC7
:1002D00003D0112E01D0122E12D186684FEA420CA3
:1002E00005FA0CF7BE43CF6807FA0CF7374387606F
:1002F0004668A6430C79C4F3001494403443446028
:10030000C668570005FA07FC8C6826EA0C06BC4054
:100310003443C4604C68022C01D0122C13D1D40891
:1003200000EB8404A346D4F8209054074FEAD46A23
:100330000EFA0AF629EA06090E6906FA0AF646EAEC
:100340000906CBF8206006680C7926EA0C0604F052
:100350000304BC40344304604C68E40065D5364C6B
:10036000266846F480462660246822F0030604F4DA
:1003700080440094314C3444A446D4F8084896078D
:10038000370F0EFA07F6B4432D4EB04201D10026C6
:1003900024E02C4EB04201D101261FE02A4EB0428B
:1003A00002D102261AE040E0284EB04201D10326D5
:1003B00014E0274EB04201D104260FE0254EB04292
:1003C00001D105260AE0244EB04201D1062605E0FF
:1003D000224EB04201D1072600E00826BE40264347
:1003E000CCF808681E4E34684F689C43FF0300D564
:1003F0001C4334601A4C241D26684F689E43BF037B
:1004000000D51E432660164E083634684F689C435C
:10041000FF0200D51C433460114E0C3634684F681F
:100420009C43BF0200D51C433460521C102AFFF4C9
:1004300045AFBDE8F88F000044380240003001406D
:10044000000002400004024000080240000C02408C
:10045000001002400014024000180240001C02403C
:10046000003C01400AB1816170470904FBE70000CC
:100470000148806870470000000000200248816841
:100480000278114481607047000000200B4810B5CD
:10049000016841F400710160016841F4806101600C
:1004A000016841F480710160032000F07BF80020B6
:1004B00000F006F800F024F8002010BD003C0240D7
:1004C00070B50D4D04464FF47A712878B1FBF0F009
:1004D0000A490968B1FBF0F000F00EFB48B9102C96
:1004E00007D200222146501E00F03CF800206C602C
:1004F00070BD012070BD0000000000200C00002035
:10050000104808B5016841F480410160006800F4BA
:10051000804000900B48001F016841F0805101604D
:10052000006800F080500090072000F03BF80022A7
:100530001146052000F016F8BDE80840052000F03F
:1005400003B8000044380240002809DB00F01F0215
:10055000012191404009800000F1E020C0F8001125
:1005600070470000F0B40E4B1B680C46C3F3022327
:10057000C3F10705042D00D90425191D072901D24F
:10058000002300E0DB1E012606FA05F1491E21408A
:1005900099409E40761E16403143F0BC00F04BBCA3
:1005A0000CED00E0064900F0070208684FF6FF0373
:1005B000184040EA0220034A1043086070470000D8
:1005C0000CED00E00000FA052DE9F0470E460500AD
:1005D00065D0DFF81481D8F80000F7B200F00F0002
:1005E000B04207D288F80070D8F8000000F00F0081
:1005F000B04254D128683D4C810712D5400703D53D
:10060000206840F4E05020602878000703D5206877
:1006100040F4604020602068A96820F0F0000843A2
:1006200020602878C0072DD0304968680839012833
:1006300012D0022813D0032811D009688907002995
:100640002DDA216821F0030101432160FFF710FF3B
:10065000814641F2883A0EE009688903EFE70968AC
:100660008901ECE7FFF704FFA0EB0901514502D92E
:100670000320BDE8F0872068696800F00C00B0EB4B
:10068000810FEFD1D8F80010404601F00F01B142C0
:1006900007D90770006800F00F00B04201D00120B8
:1006A000E7E72878400705D52068E96820F4E0509E
:1006B000084320602878000706D52068296920F4BF
:1006C000604040EAC100206000F038F82168084A24
:1006D000C1F30311515CC840064908600648006830
:1006E000FFF7EEFE0020C4E7003C0240083802405D
:1006F000AC0E00080C00002004000020044805494E
:1007000000680968044AC1F38221515CC8407047FF
:100710000C00002008380240BC0E000804480549BF
:1007200000680968044AC1F34231515CC84070470F
:100730000C00002008380240BC0E0008154810B517
:10074000006810F00C02144813D04110042A0FD096
:10075000082A0ED10F4C241F2268236802F03F02A2
:100760005B0207D52068C0F38810A0FB010106E0FA
:10077000084610BD2168C1F38811A1FB00010023C8
:10078000FFF71EFD2168C1F30141491C4900B0FB80
:10079000F1F010BD083802400024F4002DE9F84FB4
:1007A000040076D02078DFF838A3CE4DC00749D0BA
:1007B000DAF800105046C1F38101012908D0006821
:1007C000C0F3810002280AD1281D0068400206D526
:1007D0002868800336D560680028E2D032E060687F
:1007E000B0F5803F10D0B0F5A02F286810D020F4CD
:1007F00080302860286820F4802028606068A0B1DC
:10080000FFF736FE06460CE0286840F48030F4E737
:1008100040F480202860F7E7FFF72AFE801B642859
:1008200073D828688003F7D50CE0FFF721FE064651
:1008300005E000BFFFF71CFE801B6428F0D8286885
:100840008003F7D42078DFF8A08280074FF00009FA
:100850003ED5DAF80010504611F00C0F09D00068B0
:10086000C0F3810002280BD19D48001F00684002A0
:1008700006D42868800715D5E068012809D111E061
:10088000E068B8B10120C8F80000FFF7F1FD0646A6
:1008900005E020E1FFF7ECFD801B0228C0D82868A6
:1008A0008007F7D52868216920F0F80040EAC100E8
:1008B00028600DE0C8F80090FFF7DAFD064604E076
:1008C000FFF7D6FD801B02281FD828688007F7D4C1
:1008D0002078000722D5824E844861696C3671B158
:1008E00001210160FFF7C4FD074604E0FFF7C0FDEA
:1008F000C01B022809D830688007F7D50EE0C0F881
:100900000090FFF7B5FD074605E082E0FFF7B0FD78
:10091000C01B02287DD830688007F7D420784007B4
:1009200068D5DFF8BCB100270BF1380BDBF800000D
:10093000C0000BD4DBF8001041F08051CBF8001060
:10094000DBF80000012700F080500090684E30680E
:10095000C00510D4306840F480703060FFF788FD27
:10096000009005E0FFF784FD0099401A022850D856
:100970003068C005F6D55A4EA068683601280FD0F9
:100980000528306810D020F001003060306820F079
:1009900004003060A068B8B1FFF76AFD00900FE076
:1009A000306840F00100F4E740F004003060F7E701
:1009B000FFF75EFD0099411A41F28830814266D806
:1009C00030688007F4D50EE0FFF752FD009007E095
:1009D000FFF74EFD0099411A41F28830814256D806
:1009E00030688007F4D42FB1DBF8001021F080517B
:1009F000CBF80010A069D0B3DAF800205146C2F35A
:100A00008102022A4AD00228484607D0C8F860006E
:100A100000E03CE0FFF72CFD04463BE04746C8F809
:100A20006000FFF725FD064605E000BFFFF720FD4B
:100A3000801B02282BD828688001F7D4D4E907014D
:100A40000843A16A2B4A490802EB0141626A41EA64
:100A50008211084394F82C1040EA01612048001FDD
:100A6000016001203866FFF703FD044605E034E02D
:100A7000FFF7FEFC001B022809D828688001F7D583
:100A80002BE000BFFFF7F4FC001B022802D9032073
:100A9000BDE8F88F28688001F4D41EE00128F7D063
:100AA0000868E26900F48001914214D1226A00F0E2
:100AB0003F0191420FD147F6C071626A01409142F5
:100AC00009D1A26A00F44031914204D1E16A00F0F8
:100AD0007060884201D00120DAE70020D8E70000EA
:100AE000083802400038024000004742800E47426A
:100AF000007000400000FFFF10B5401EB0F1807F85
:100B000001D3012010BD4FF0E02460610F21601778
:100B100000F091F90020A06107202061002010BDA5
:100B200070B5040004D094F83900002510B106E037
:100B3000012070BD84F83850204600F023F82420AE
:100B400084F839002068C16821F40051C160204652
:100B500000F0DCF82068016921F49041016120680F
:100B6000416921F02A0141612068C16841F40051C6
:100B7000C160E563202084F8390084F83A00002041
:100B800070BD000010B586B0044614216846FFF71A
:100B90004FFB13492068884220D11248016841F474
:100BA00000310160006800F4003005900D481038F5
:100BB000016841F0010101600068694600F0010030
:100BC00005900C200090022001900120029003204B
:100BD0000390072004900448FFF768FB06B010BD9F
:100BE000004400404038024000000240FEE70000A0
:100BF00030B587B014216846FFF71AFB154800246A
:100C0000016841F010010160016801F010010591D7
:100C1000016841F080010160016801F080010591E7
:100C2000016841F00101016000680B4D00F0010016
:100C30000590002220212846FFF714FC2020009078
:100C40000120CDE90104694628460394FFF72EFBF5
:100C500007B030BD3038024000100240FEE7704758
:100C6000704770477047FFF709BC000030B593B07C
:100C700030216846FFF7DCFA14210CA8FFF7D8FAF8
:100C800019480025016841F080510160006800F0BA
:100C9000805011901548016841F48041016000685E
:100CA000022400F480401190012003901020049051
:100CB000009406940820CDE90750A820CDE9090446
:100CC00007200B906846FFF769FD0CA90F2081E80B
:100CD00031004FF4A0500F90E002109005210CA8B5
:100CE000FFF772FC13B030BD403802400070004086
:100CF0000548016841F47001016003494FF000604C
:100D0000803908607047000088ED00E02DE9F0416F
:100D1000044600680169E26821F440511143016111
:100D20002169A068E26908436169114308432168A9
:100D3000CA6849F20C639A430243CA602068416959
:100D4000A26921F4407111434161E06919276425CA
:100D50003226B0F5004F354A354920684FF000087B
:100D600006D0884201D0904236D1FFF7D7FC35E05B
:100D7000884201D0904202D1FFF7D0FC01E0FFF79A
:100D8000BDFC61684A18A0FB070148EB0803FFF7A8
:100D900017FA0146B0FBF5F00201B1FBF5F06FF078
:100DA0001803584301EB800006EBC000B0FBF5F0E0
:100DB00000F0F80002EB4002B1FBF5F0584301EB04
:100DC000800006EBC000B0FBF5F000F007002168E2
:100DD00010448860BDE8F081FFF790FC61688B0FDC
:100DE0008A00A0FB0701FFF7EBF90146B0FBF5F025
:100DF0006FF01802504301EB800006EB0010B0FBCF
:100E0000F5F000F0F002B1FBF5F002EB0012B1FBDF
:100E1000F5F06FF01803584301EB800006EB00106B
:100E2000B0FBF5F000F00F00D1E700000014014026
:100E300000100140FEE70907090E002804DB00F15D
:100E4000E02080F80014704700F00F0000F1E0206F
:100E500080F8141D704702E008C8121F08C1002A5C
:100E6000FAD170477047002001E001C1121F002A2B
:100E7000FBD17047FFF70AFBFFF7F8FEFFF7B8FE5C
:100E8000094808490C2201604FF4E131416000211A
:100E90008160C160C0E904128161C161FFF740FE59
:100EA000FEE70000004400401000002000000000A9
:100EB000000000000102030406070809000000000A
:100EC00001020304E40E00080000002010000000EE
:100ED000560E0008F40E0008100000204004000028
:100EE000660E000801000000100000000000000075
:040EF0000024F400E6
:040000050800018965
:00000001FF
